{
  "contractName": "Land",
  "abi": [
    {
      "inputs": [],
      "stateMutability": "nonpayable",
      "type": "constructor"
    },
    {
      "inputs": [
        {
          "internalType": "string",
          "name": "",
          "type": "string"
        }
      ],
      "name": "LandDetail",
      "outputs": [
        {
          "internalType": "string",
          "name": "documentId",
          "type": "string"
        },
        {
          "internalType": "string",
          "name": "documentName",
          "type": "string"
        },
        {
          "internalType": "string",
          "name": "docType",
          "type": "string"
        },
        {
          "internalType": "string",
          "name": "plotOwner",
          "type": "string"
        },
        {
          "internalType": "string",
          "name": "surveyNumber",
          "type": "string"
        },
        {
          "internalType": "string",
          "name": "plotAddress",
          "type": "string"
        },
        {
          "internalType": "string",
          "name": "branchName",
          "type": "string"
        },
        {
          "internalType": "address",
          "name": "issuedBy",
          "type": "address"
        }
      ],
      "stateMutability": "view",
      "type": "function",
      "constant": true
    },
    {
      "inputs": [],
      "name": "admin",
      "outputs": [
        {
          "internalType": "address",
          "name": "",
          "type": "address"
        }
      ],
      "stateMutability": "view",
      "type": "function",
      "constant": true
    },
    {
      "inputs": [
        {
          "internalType": "string",
          "name": "_documentUniqueId",
          "type": "string"
        },
        {
          "internalType": "string",
          "name": "_documentId",
          "type": "string"
        },
        {
          "internalType": "string",
          "name": "_documentName",
          "type": "string"
        },
        {
          "internalType": "string",
          "name": "_docType",
          "type": "string"
        },
        {
          "internalType": "string",
          "name": "_plotOwner",
          "type": "string"
        },
        {
          "internalType": "string",
          "name": "_surveyNumber",
          "type": "string"
        },
        {
          "internalType": "string",
          "name": "_plotAddress",
          "type": "string"
        },
        {
          "internalType": "string",
          "name": "_branchName",
          "type": "string"
        }
      ],
      "name": "issue",
      "outputs": [],
      "stateMutability": "nonpayable",
      "type": "function"
    },
    {
      "inputs": [
        {
          "internalType": "string",
          "name": "_documentUniqueId",
          "type": "string"
        }
      ],
      "name": "getDocuments",
      "outputs": [
        {
          "internalType": "string",
          "name": "documentId",
          "type": "string"
        },
        {
          "internalType": "string",
          "name": "documentName",
          "type": "string"
        },
        {
          "internalType": "string",
          "name": "docType",
          "type": "string"
        },
        {
          "internalType": "string",
          "name": "plotOwner",
          "type": "string"
        },
        {
          "internalType": "string",
          "name": "surveyNumber",
          "type": "string"
        },
        {
          "internalType": "string",
          "name": "plotAddress",
          "type": "string"
        },
        {
          "internalType": "string",
          "name": "branchName",
          "type": "string"
        },
        {
          "internalType": "address",
          "name": "issuedBy",
          "type": "address"
        }
      ],
      "stateMutability": "view",
      "type": "function",
      "constant": true
    }
  ],
  "bytecode": "0x608060405234801561000f575f80fd5b50335f806101000a81548173ffffffffffffffffffffffffffffffffffffffff021916908373ffffffffffffffffffffffffffffffffffffffff16021790555061151f8061005c5f395ff3fe608060405234801561000f575f80fd5b506004361061004a575f3560e01c80630b57f1731461004e5780633b0a61391461006a578063adf7487c146100a1578063f851a440146100d8575b5f80fd5b61006860048036038101906100639190610da0565b6100f6565b005b610084600480360381019061007f9190610f31565b61034b565b604051610098989796959493929190611031565b60405180910390f35b6100bb60048036038101906100b69190610f31565b61080b565b6040516100cf989796959493929190611031565b60405180910390f35b6100e0610c30565b6040516100ed91906110de565b60405180910390f35b5f8054906101000a900473ffffffffffffffffffffffffffffffffffffffff1673ffffffffffffffffffffffffffffffffffffffff163373ffffffffffffffffffffffffffffffffffffffff1614610183576040517f08c379a000000000000000000000000000000000000000000000000000000000815260040161017a90611141565b60405180910390fd5b5f6001896040516101949190611199565b908152602001604051809103902060010180546101b0906111dc565b9050146101f2576040517f08c379a00000000000000000000000000000000000000000000000000000000081526004016101e990611256565b60405180910390fd5b6040518061010001604052808881526020018781526020018681526020018581526020018481526020018381526020018281526020013373ffffffffffffffffffffffffffffffffffffffff168152506001896040516102529190611199565b90815260200160405180910390205f820151815f019081610273919061141a565b506020820151816001019081610289919061141a565b50604082015181600201908161029f919061141a565b5060608201518160030190816102b5919061141a565b5060808201518160040190816102cb919061141a565b5060a08201518160050190816102e1919061141a565b5060c08201518160060190816102f7919061141a565b5060e0820151816007015f6101000a81548173ffffffffffffffffffffffffffffffffffffffff021916908373ffffffffffffffffffffffffffffffffffffffff1602179055509050505050505050505050565b60608060608060608060605f8060018a6040516103689190611199565b9081526020016040518091039020604051806101000160405290815f82018054610391906111dc565b80601f01602080910402602001604051908101604052809291908181526020018280546103bd906111dc565b80156104085780601f106103df57610100808354040283529160200191610408565b820191905f5260205f20905b8154815290600101906020018083116103eb57829003601f168201915b50505050508152602001600182018054610421906111dc565b80601f016020809104026020016040519081016040528092919081815260200182805461044d906111dc565b80156104985780601f1061046f57610100808354040283529160200191610498565b820191905f5260205f20905b81548152906001019060200180831161047b57829003601f168201915b505050505081526020016002820180546104b1906111dc565b80601f01602080910402602001604051908101604052809291908181526020018280546104dd906111dc565b80156105285780601f106104ff57610100808354040283529160200191610528565b820191905f5260205f20905b81548152906001019060200180831161050b57829003601f168201915b50505050508152602001600382018054610541906111dc565b80601f016020809104026020016040519081016040528092919081815260200182805461056d906111dc565b80156105b85780601f1061058f576101008083540402835291602001916105b8565b820191905f5260205f20905b81548152906001019060200180831161059b57829003601f168201915b505050505081526020016004820180546105d1906111dc565b80601f01602080910402602001604051908101604052809291908181526020018280546105fd906111dc565b80156106485780601f1061061f57610100808354040283529160200191610648565b820191905f5260205f20905b81548152906001019060200180831161062b57829003601f168201915b50505050508152602001600582018054610661906111dc565b80601f016020809104026020016040519081016040528092919081815260200182805461068d906111dc565b80156106d85780601f106106af576101008083540402835291602001916106d8565b820191905f5260205f20905b8154815290600101906020018083116106bb57829003601f168201915b505050505081526020016006820180546106f1906111dc565b80601f016020809104026020016040519081016040528092919081815260200182805461071d906111dc565b80156107685780601f1061073f57610100808354040283529160200191610768565b820191905f5260205f20905b81548152906001019060200180831161074b57829003601f168201915b50505050508152602001600782015f9054906101000a900473ffffffffffffffffffffffffffffffffffffffff1673ffffffffffffffffffffffffffffffffffffffff1673ffffffffffffffffffffffffffffffffffffffff16815250509050805f015181602001518260400151836060015184608001518560a001518660c001518760e001519850985098509850985098509850985050919395975091939597565b6001818051602081018201805184825260208301602085012081835280955050505050505f91509050805f018054610842906111dc565b80601f016020809104026020016040519081016040528092919081815260200182805461086e906111dc565b80156108b95780601f10610890576101008083540402835291602001916108b9565b820191905f5260205f20905b81548152906001019060200180831161089c57829003601f168201915b5050505050908060010180546108ce906111dc565b80601f01602080910402602001604051908101604052809291908181526020018280546108fa906111dc565b80156109455780601f1061091c57610100808354040283529160200191610945565b820191905f5260205f20905b81548152906001019060200180831161092857829003601f168201915b50505050509080600201805461095a906111dc565b80601f0160208091040260200160405190810160405280929190818152602001828054610986906111dc565b80156109d15780601f106109a8576101008083540402835291602001916109d1565b820191905f5260205f20905b8154815290600101906020018083116109b457829003601f168201915b5050505050908060030180546109e6906111dc565b80601f0160208091040260200160405190810160405280929190818152602001828054610a12906111dc565b8015610a5d5780601f10610a3457610100808354040283529160200191610a5d565b820191905f5260205f20905b815481529060010190602001808311610a4057829003601f168201915b505050505090806004018054610a72906111dc565b80601f0160208091040260200160405190810160405280929190818152602001828054610a9e906111dc565b8015610ae95780601f10610ac057610100808354040283529160200191610ae9565b820191905f5260205f20905b815481529060010190602001808311610acc57829003601f168201915b505050505090806005018054610afe906111dc565b80601f0160208091040260200160405190810160405280929190818152602001828054610b2a906111dc565b8015610b755780601f10610b4c57610100808354040283529160200191610b75565b820191905f5260205f20905b815481529060010190602001808311610b5857829003601f168201915b505050505090806006018054610b8a906111dc565b80601f0160208091040260200160405190810160405280929190818152602001828054610bb6906111dc565b8015610c015780601f10610bd857610100808354040283529160200191610c01565b820191905f5260205f20905b815481529060010190602001808311610be457829003601f168201915b505050505090806007015f9054906101000a900473ffffffffffffffffffffffffffffffffffffffff16905088565b5f8054906101000a900473ffffffffffffffffffffffffffffffffffffffff1681565b5f604051905090565b5f80fd5b5f80fd5b5f80fd5b5f80fd5b5f601f19601f8301169050919050565b7f4e487b71000000000000000000000000000000000000000000000000000000005f52604160045260245ffd5b610cb282610c6c565b810181811067ffffffffffffffff82111715610cd157610cd0610c7c565b5b80604052505050565b5f610ce3610c53565b9050610cef8282610ca9565b919050565b5f67ffffffffffffffff821115610d0e57610d0d610c7c565b5b610d1782610c6c565b9050602081019050919050565b828183375f83830152505050565b5f610d44610d3f84610cf4565b610cda565b905082815260208101848484011115610d6057610d5f610c68565b5b610d6b848285610d24565b509392505050565b5f82601f830112610d8757610d86610c64565b5b8135610d97848260208601610d32565b91505092915050565b5f805f805f805f80610100898b031215610dbd57610dbc610c5c565b5b5f89013567ffffffffffffffff811115610dda57610dd9610c60565b5b610de68b828c01610d73565b985050602089013567ffffffffffffffff811115610e0757610e06610c60565b5b610e138b828c01610d73565b975050604089013567ffffffffffffffff811115610e3457610e33610c60565b5b610e408b828c01610d73565b965050606089013567ffffffffffffffff811115610e6157610e60610c60565b5b610e6d8b828c01610d73565b955050608089013567ffffffffffffffff811115610e8e57610e8d610c60565b5b610e9a8b828c01610d73565b94505060a089013567ffffffffffffffff811115610ebb57610eba610c60565b5b610ec78b828c01610d73565b93505060c089013567ffffffffffffffff811115610ee857610ee7610c60565b5b610ef48b828c01610d73565b92505060e089013567ffffffffffffffff811115610f1557610f14610c60565b5b610f218b828c01610d73565b9150509295985092959890939650565b5f60208284031215610f4657610f45610c5c565b5b5f82013567ffffffffffffffff811115610f6357610f62610c60565b5b610f6f84828501610d73565b91505092915050565b5f81519050919050565b5f82825260208201905092915050565b5f5b83811015610faf578082015181840152602081019050610f94565b5f8484015250505050565b5f610fc482610f78565b610fce8185610f82565b9350610fde818560208601610f92565b610fe781610c6c565b840191505092915050565b5f73ffffffffffffffffffffffffffffffffffffffff82169050919050565b5f61101b82610ff2565b9050919050565b61102b81611011565b82525050565b5f610100820190508181035f83015261104a818b610fba565b9050818103602083015261105e818a610fba565b905081810360408301526110728189610fba565b905081810360608301526110868188610fba565b9050818103608083015261109a8187610fba565b905081810360a08301526110ae8186610fba565b905081810360c08301526110c28185610fba565b90506110d160e0830184611022565b9998505050505050505050565b5f6020820190506110f15f830184611022565b92915050565b7f4163636573732044656e696564000000000000000000000000000000000000005f82015250565b5f61112b600d83610f82565b9150611136826110f7565b602082019050919050565b5f6020820190508181035f8301526111588161111f565b9050919050565b5f81905092915050565b5f61117382610f78565b61117d818561115f565b935061118d818560208601610f92565b80840191505092915050565b5f6111a48284611169565b915081905092915050565b7f4e487b71000000000000000000000000000000000000000000000000000000005f52602260045260245ffd5b5f60028204905060018216806111f357607f821691505b602082108103611206576112056111af565b5b50919050565b7f446f63756d656e7420494420616c7265616479206578697374730000000000005f82015250565b5f611240601a83610f82565b915061124b8261120c565b602082019050919050565b5f6020820190508181035f83015261126d81611234565b9050919050565b5f819050815f5260205f209050919050565b5f6020601f8301049050919050565b5f82821b905092915050565b5f600883026112d07fffffffffffffffffffffffffffffffffffffffffffffffffffffffffffffffff82611295565b6112da8683611295565b95508019841693508086168417925050509392505050565b5f819050919050565b5f819050919050565b5f61131e611319611314846112f2565b6112fb565b6112f2565b9050919050565b5f819050919050565b61133783611304565b61134b61134382611325565b8484546112a1565b825550505050565b5f90565b61135f611353565b61136a81848461132e565b505050565b5b8181101561138d576113825f82611357565b600181019050611370565b5050565b601f8211156113d2576113a381611274565b6113ac84611286565b810160208510156113bb578190505b6113cf6113c785611286565b83018261136f565b50505b505050565b5f82821c905092915050565b5f6113f25f19846008026113d7565b1980831691505092915050565b5f61140a83836113e3565b9150826002028217905092915050565b61142382610f78565b67ffffffffffffffff81111561143c5761143b610c7c565b5b61144682546111dc565b611451828285611391565b5f60209050601f831160018114611482575f8415611470578287015190505b61147a85826113ff565b8655506114e1565b601f19841661149086611274565b5f5b828110156114b757848901518255600182019150602085019450602081019050611492565b868310156114d457848901516114d0601f8916826113e3565b8355505b6001600288020188555050505b50505050505056fea2646970667358221220a4975ddfbc1d7764f889d246db18c03c82e59b12848d08aa8ff9bb182a2df80b64736f6c63430008150033",
  "immutableReferences": {},
  "source": "// SPDX-License-Identifier: MIT\r\npragma solidity 0.8.21;\r\n\r\ncontract Land {\r\n    address public admin;\r\n\r\n    constructor() {\r\n        admin = msg.sender;\r\n    }\r\n\r\n    modifier onlyAdmin() {\r\n        require(msg.sender == admin, \"Access Denied\");\r\n        _;\r\n    }\r\n\r\n    struct LandDetails {\r\n        string documentId;\r\n        string documentName;\r\n        string docType;\r\n        string plotOwner;\r\n        string surveyNumber;\r\n        string plotAddress;\r\n        string branchName;\r\n        address issuedBy;\r\n    }\r\n\r\n    mapping(string => LandDetails) public LandDetail;\r\n\r\n    function issue(\r\n        string memory _documentUniqueId, \r\n        string memory _documentId, \r\n        string memory _documentName,\r\n        string memory _docType,\r\n        string memory _plotOwner,\r\n        string memory _surveyNumber,\r\n        string memory _plotAddress,\r\n        string memory _branchName\r\n    ) public onlyAdmin {\r\n        require(\r\n            bytes(LandDetail[_documentUniqueId].documentName).length == 0,\r\n            \"Document ID already exists\"\r\n        );\r\n\r\n        LandDetail[_documentUniqueId] = LandDetails(\r\n            _documentId, \r\n            _documentName,\r\n            _docType,\r\n            _plotOwner,\r\n            _surveyNumber,\r\n            _plotAddress,\r\n            _branchName,\r\n            msg.sender\r\n        );\r\n    }\r\n\r\n    function getDocuments(string memory _documentUniqueId)\r\n        public\r\n        view\r\n        returns (\r\n            string memory documentId,\r\n            string memory documentName,\r\n            string memory docType,\r\n            string memory plotOwner,\r\n            string memory surveyNumber,\r\n            string memory plotAddress,\r\n            string memory branchName,\r\n            address issuedBy\r\n        )\r\n    {\r\n        LandDetails memory land = LandDetail[_documentUniqueId];\r\n\r\n        return (\r\n            land.documentId,\r\n            land.documentName,\r\n            land.docType,\r\n            land.plotOwner,\r\n            land.surveyNumber,\r\n            land.plotAddress,\r\n            land.branchName,\r\n            land.issuedBy\r\n        );\r\n    }\r\n}\r\n",
  "sourcePath": "C:\\Users\\rosha\\Desktop\\My Projects\\landowner_verifier\\server\\truffle\\contracts\\Land.sol",
  "compiler": {
    "name": "solc",
    "version": "0.8.21+commit.d9974bed.Emscripten.clang"
  },
  "schemaVersion": "3.4.16",
  "updatedAt": "2025-03-21T08:45:28.285Z",
  "networkType": "ethereum",
  "devdoc": {
    "kind": "dev",
    "methods": {},
    "version": 1
  },
  "userdoc": {
    "kind": "user",
    "methods": {},
    "version": 1
  }
}